S0030000FC
S113B60086FFB7103DCEF00086A0A7001C2680A6BA
S113B610248A03A7248613A7398601B7F800860075
S113B620A72B8600A72C860CA72D8EF0F47EB71EC0
S113B6301F2E20FCA62F817F27F6398161250681E4
S113B6407A220284DF398DE88DF1810D27061F2EC1
S113B65080FCA72F3918A60027068DF2180820F5BC
S113B660398DE381302B4381392F0A81412B3B8172
S113B670462E378007398DCE815326FA8DC88139FD
S113B6802728813126F07FF0438D388002B7F044BB
S113B6908D1B8D2F7AF044270718A700180820F275
S113B6A07CF04327D1863FBDB64E7EB73F8D14BB99
S113B6B0F04220028D0DB7F0458D08B7F04618FE14
S113B6C0F045398D9C48484848168D95840F1B16C3
S113B6D0FBF043F7F043398DDB8D3E8D3A8DE41852
S113B6E00918A70018A10026BC20548DC78D2A8DE7
S113B6F0D218A700204944444444840F8B30813934
S113B70022037EB64E8B077EB64E18A6008DE71830
S113B710A6008DE61808398DF186207EB64E18CE27
S113B720B778BDB6554FB7F042201418CEB7A4BDB4
S113B730B655183018FFF0FEC60B8DDB5A26FB8E6B
S113B740F0F4860DBDB64E860ABDB64E18CEB79D32
S113B750BDB655BDB64616BDB719C14C26037EB657
S113B76076C14D26037EB6D7C15726037EB6EBC1FC
S113B7705027B8C14726C83B47286F292C4C286F4F
S113B7806164292C5028726F63292C4D286F642919
S113B7902C572872697465293F3A0D0A004B4255AB
S113B7A0472D3E000D0A43432042202041202058CB
S113B7B04820584C20594820594C20504820504C7F
S10CB7C020534820534C0D0A00EB
S9030000FC
